{
  "_format": "hh-sol-artifact-1",
  "contractName": "Auction",
  "sourceName": "contracts/Auction.sol",
  "abi": [
    {
      "inputs": [],
      "stateMutability": "nonpayable",
      "type": "constructor"
    },
    {
      "anonymous": false,
      "inputs": [
        {
          "indexed": false,
          "internalType": "address",
          "name": "buyer",
          "type": "address"
        },
        {
          "indexed": false,
          "internalType": "uint256",
          "name": "orderId",
          "type": "uint256"
        },
        {
          "indexed": false,
          "internalType": "uint256",
          "name": "itemId",
          "type": "uint256"
        }
      ],
      "name": "Buy",
      "type": "event"
    },
    {
      "anonymous": false,
      "inputs": [
        {
          "indexed": false,
          "internalType": "string",
          "name": "name",
          "type": "string"
        },
        {
          "indexed": false,
          "internalType": "uint256",
          "name": "cost",
          "type": "uint256"
        },
        {
          "indexed": false,
          "internalType": "uint256",
          "name": "quantity",
          "type": "uint256"
        }
      ],
      "name": "List",
      "type": "event"
    },
    {
      "inputs": [
        {
          "internalType": "uint256",
          "name": "_id",
          "type": "uint256"
        }
      ],
      "name": "buy",
      "outputs": [],
      "stateMutability": "payable",
      "type": "function"
    },
    {
      "inputs": [
        {
          "internalType": "uint256",
          "name": "",
          "type": "uint256"
        }
      ],
      "name": "items",
      "outputs": [
        {
          "internalType": "uint256",
          "name": "id",
          "type": "uint256"
        },
        {
          "internalType": "string",
          "name": "name",
          "type": "string"
        },
        {
          "internalType": "string",
          "name": "category",
          "type": "string"
        },
        {
          "internalType": "string",
          "name": "image",
          "type": "string"
        },
        {
          "internalType": "uint256",
          "name": "cost",
          "type": "uint256"
        },
        {
          "internalType": "uint256",
          "name": "rating",
          "type": "uint256"
        },
        {
          "internalType": "uint256",
          "name": "stock",
          "type": "uint256"
        }
      ],
      "stateMutability": "view",
      "type": "function"
    },
    {
      "inputs": [
        {
          "internalType": "uint256",
          "name": "_id",
          "type": "uint256"
        },
        {
          "internalType": "string",
          "name": "_name",
          "type": "string"
        },
        {
          "internalType": "string",
          "name": "_category",
          "type": "string"
        },
        {
          "internalType": "string",
          "name": "_image",
          "type": "string"
        },
        {
          "internalType": "uint256",
          "name": "_cost",
          "type": "uint256"
        },
        {
          "internalType": "uint256",
          "name": "_rating",
          "type": "uint256"
        },
        {
          "internalType": "uint256",
          "name": "_stock",
          "type": "uint256"
        }
      ],
      "name": "list",
      "outputs": [],
      "stateMutability": "nonpayable",
      "type": "function"
    },
    {
      "inputs": [],
      "name": "name",
      "outputs": [
        {
          "internalType": "string",
          "name": "",
          "type": "string"
        }
      ],
      "stateMutability": "view",
      "type": "function"
    },
    {
      "inputs": [
        {
          "internalType": "address",
          "name": "",
          "type": "address"
        }
      ],
      "name": "orderCount",
      "outputs": [
        {
          "internalType": "uint256",
          "name": "",
          "type": "uint256"
        }
      ],
      "stateMutability": "view",
      "type": "function"
    },
    {
      "inputs": [
        {
          "internalType": "address",
          "name": "",
          "type": "address"
        },
        {
          "internalType": "uint256",
          "name": "",
          "type": "uint256"
        }
      ],
      "name": "orders",
      "outputs": [
        {
          "internalType": "uint256",
          "name": "time",
          "type": "uint256"
        },
        {
          "components": [
            {
              "internalType": "uint256",
              "name": "id",
              "type": "uint256"
            },
            {
              "internalType": "string",
              "name": "name",
              "type": "string"
            },
            {
              "internalType": "string",
              "name": "category",
              "type": "string"
            },
            {
              "internalType": "string",
              "name": "image",
              "type": "string"
            },
            {
              "internalType": "uint256",
              "name": "cost",
              "type": "uint256"
            },
            {
              "internalType": "uint256",
              "name": "rating",
              "type": "uint256"
            },
            {
              "internalType": "uint256",
              "name": "stock",
              "type": "uint256"
            }
          ],
          "internalType": "struct Auction.Item",
          "name": "item",
          "type": "tuple"
        }
      ],
      "stateMutability": "view",
      "type": "function"
    },
    {
      "inputs": [],
      "name": "owner",
      "outputs": [
        {
          "internalType": "address",
          "name": "",
          "type": "address"
        }
      ],
      "stateMutability": "view",
      "type": "function"
    },
    {
      "inputs": [],
      "name": "withdraw",
      "outputs": [],
      "stateMutability": "nonpayable",
      "type": "function"
    }
  ],
  "bytecode": "0x60806040526040518060400160405280600781526020017f41756374696f6e00000000000000000000000000000000000000000000000000815250600190816200004a919062000360565b503480156200005857600080fd5b506040518060400160405280600781526020017f41756374696f6e00000000000000000000000000000000000000000000000000815250600190816200009f919062000360565b50336000806101000a81548173ffffffffffffffffffffffffffffffffffffffff021916908373ffffffffffffffffffffffffffffffffffffffff16021790555062000447565b600081519050919050565b7f4e487b7100000000000000000000000000000000000000000000000000000000600052604160045260246000fd5b7f4e487b7100000000000000000000000000000000000000000000000000000000600052602260045260246000fd5b600060028204905060018216806200016857607f821691505b6020821081036200017e576200017d62000120565b5b50919050565b60008190508160005260206000209050919050565b60006020601f8301049050919050565b600082821b905092915050565b600060088302620001e87fffffffffffffffffffffffffffffffffffffffffffffffffffffffffffffffff82620001a9565b620001f48683620001a9565b95508019841693508086168417925050509392505050565b6000819050919050565b6000819050919050565b6000620002416200023b62000235846200020c565b62000216565b6200020c565b9050919050565b6000819050919050565b6200025d8362000220565b620002756200026c8262000248565b848454620001b6565b825550505050565b600090565b6200028c6200027d565b6200029981848462000252565b505050565b5b81811015620002c157620002b560008262000282565b6001810190506200029f565b5050565b601f8211156200031057620002da8162000184565b620002e58462000199565b81016020851015620002f5578190505b6200030d620003048562000199565b8301826200029e565b50505b505050565b600082821c905092915050565b6000620003356000198460080262000315565b1980831691505092915050565b600062000350838362000322565b9150826002028217905092915050565b6200036b82620000e6565b67ffffffffffffffff811115620003875762000386620000f1565b5b6200039382546200014f565b620003a0828285620002c5565b600060209050601f831160018114620003d85760008415620003c3578287015190505b620003cf858262000342565b8655506200043f565b601f198416620003e88662000184565b60005b828110156200041257848901518255600182019150602085019450602081019050620003eb565b868310156200043257848901516200042e601f89168262000322565b8355505b6001600288020188555050505b505050505050565b6117e880620004576000396000f3fe60806040526004361061007b5760003560e01c80638da5cb5b1161004e5780638da5cb5b1461013d578063bfb231d214610168578063d96a094a146101ab578063eea8a7e8146101c75761007b565b806306fdde03146100805780633ccfd60b146100ab578063713d856b146100c2578063793b8c6d146100ff575b600080fd5b34801561008c57600080fd5b506100956101f0565b6040516100a29190610dd4565b60405180910390f35b3480156100b757600080fd5b506100c061027e565b005b3480156100ce57600080fd5b506100e960048036038101906100e49190610e68565b610370565b6040516100f69190610eae565b60405180910390f35b34801561010b57600080fd5b5061012660048036038101906101219190610ef5565b610388565b604051610134929190611038565b60405180910390f35b34801561014957600080fd5b506101526105a1565b60405161015f9190611077565b60405180910390f35b34801561017457600080fd5b5061018f600480360381019061018a9190611092565b6105c5565b6040516101a297969594939291906110bf565b60405180910390f35b6101c560048036038101906101c09190611092565b61079f565b005b3480156101d357600080fd5b506101ee60048036038101906101e99190611278565b610bef565b005b600180546101fd9061139d565b80601f01602080910402602001604051908101604052809291908181526020018280546102299061139d565b80156102765780601f1061024b57610100808354040283529160200191610276565b820191906000526020600020905b81548152906001019060200180831161025957829003601f168201915b505050505081565b60008054906101000a900473ffffffffffffffffffffffffffffffffffffffff1673ffffffffffffffffffffffffffffffffffffffff163373ffffffffffffffffffffffffffffffffffffffff16146102d657600080fd5b60008060009054906101000a900473ffffffffffffffffffffffffffffffffffffffff1673ffffffffffffffffffffffffffffffffffffffff164760405161031d906113ff565b60006040518083038185875af1925050503d806000811461035a576040519150601f19603f3d011682016040523d82523d6000602084013e61035f565b606091505b505090508061036d57600080fd5b50565b60036020528060005260406000206000915090505481565b600460205281600052604060002060205280600052604060002060009150915050806000015490806001016040518060e0016040529081600082015481526020016001820180546103d89061139d565b80601f01602080910402602001604051908101604052809291908181526020018280546104049061139d565b80156104515780601f1061042657610100808354040283529160200191610451565b820191906000526020600020905b81548152906001019060200180831161043457829003601f168201915b5050505050815260200160028201805461046a9061139d565b80601f01602080910402602001604051908101604052809291908181526020018280546104969061139d565b80156104e35780601f106104b8576101008083540402835291602001916104e3565b820191906000526020600020905b8154815290600101906020018083116104c657829003601f168201915b505050505081526020016003820180546104fc9061139d565b80601f01602080910402602001604051908101604052809291908181526020018280546105289061139d565b80156105755780601f1061054a57610100808354040283529160200191610575565b820191906000526020600020905b81548152906001019060200180831161055857829003601f168201915b505050505081526020016004820154815260200160058201548152602001600682015481525050905082565b60008054906101000a900473ffffffffffffffffffffffffffffffffffffffff1681565b60026020528060005260406000206000915090508060000154908060010180546105ee9061139d565b80601f016020809104026020016040519081016040528092919081815260200182805461061a9061139d565b80156106675780601f1061063c57610100808354040283529160200191610667565b820191906000526020600020905b81548152906001019060200180831161064a57829003601f168201915b50505050509080600201805461067c9061139d565b80601f01602080910402602001604051908101604052809291908181526020018280546106a89061139d565b80156106f55780601f106106ca576101008083540402835291602001916106f5565b820191906000526020600020905b8154815290600101906020018083116106d857829003601f168201915b50505050509080600301805461070a9061139d565b80601f01602080910402602001604051908101604052809291908181526020018280546107369061139d565b80156107835780601f1061075857610100808354040283529160200191610783565b820191906000526020600020905b81548152906001019060200180831161076657829003601f168201915b5050505050908060040154908060050154908060060154905087565b6000600260008381526020019081526020016000206040518060e0016040529081600082015481526020016001820180546107d99061139d565b80601f01602080910402602001604051908101604052809291908181526020018280546108059061139d565b80156108525780601f1061082757610100808354040283529160200191610852565b820191906000526020600020905b81548152906001019060200180831161083557829003601f168201915b5050505050815260200160028201805461086b9061139d565b80601f01602080910402602001604051908101604052809291908181526020018280546108979061139d565b80156108e45780601f106108b9576101008083540402835291602001916108e4565b820191906000526020600020905b8154815290600101906020018083116108c757829003601f168201915b505050505081526020016003820180546108fd9061139d565b80601f01602080910402602001604051908101604052809291908181526020018280546109299061139d565b80156109765780601f1061094b57610100808354040283529160200191610976565b820191906000526020600020905b81548152906001019060200180831161095957829003601f168201915b505050505081526020016004820154815260200160058201548152602001600682015481525050905080608001513410156109b057600080fd5b60008160c00151116109c157600080fd5b60006040518060400160405280428152602001838152509050600360003373ffffffffffffffffffffffffffffffffffffffff1673ffffffffffffffffffffffffffffffffffffffff1681526020019081526020016000206000815480929190610a2a90611443565b919050555080600460003373ffffffffffffffffffffffffffffffffffffffff1673ffffffffffffffffffffffffffffffffffffffff1681526020019081526020016000206000600360003373ffffffffffffffffffffffffffffffffffffffff1673ffffffffffffffffffffffffffffffffffffffff16815260200190815260200160002054815260200190815260200160002060008201518160000155602082015181600101600082015181600001556020820151816001019081610af19190611637565b506040820151816002019081610b079190611637565b506060820151816003019081610b1d9190611637565b506080820151816004015560a0820151816005015560c08201518160060155505090505060018260c00151610b529190611709565b60026000858152602001908152602001600020600601819055507f1cbc5ab135991bd2b6a4b034a04aa2aa086dac1371cb9b16b8b5e2ed6b036bed33600360003373ffffffffffffffffffffffffffffffffffffffff1673ffffffffffffffffffffffffffffffffffffffff168152602001908152602001600020548460000151604051610be29392919061173d565b60405180910390a1505050565b60008054906101000a900473ffffffffffffffffffffffffffffffffffffffff1673ffffffffffffffffffffffffffffffffffffffff163373ffffffffffffffffffffffffffffffffffffffff1614610c4757600080fd5b60006040518060e0016040528089815260200188815260200187815260200186815260200185815260200184815260200183815250905080600260008a8152602001908152602001600020600082015181600001556020820151816001019081610cb19190611637565b506040820151816002019081610cc79190611637565b506060820151816003019081610cdd9190611637565b506080820151816004015560a0820151816005015560c082015181600601559050507ffdbe2a012c10ec01592653978eaa09b5ca60b143a0e617505b2ebcbd911ec5b8878584604051610d3293929190611774565b60405180910390a15050505050505050565b600081519050919050565b600082825260208201905092915050565b60005b83811015610d7e578082015181840152602081019050610d63565b60008484015250505050565b6000601f19601f8301169050919050565b6000610da682610d44565b610db08185610d4f565b9350610dc0818560208601610d60565b610dc981610d8a565b840191505092915050565b60006020820190508181036000830152610dee8184610d9b565b905092915050565b6000604051905090565b600080fd5b600080fd5b600073ffffffffffffffffffffffffffffffffffffffff82169050919050565b6000610e3582610e0a565b9050919050565b610e4581610e2a565b8114610e5057600080fd5b50565b600081359050610e6281610e3c565b92915050565b600060208284031215610e7e57610e7d610e00565b5b6000610e8c84828501610e53565b91505092915050565b6000819050919050565b610ea881610e95565b82525050565b6000602082019050610ec36000830184610e9f565b92915050565b610ed281610e95565b8114610edd57600080fd5b50565b600081359050610eef81610ec9565b92915050565b60008060408385031215610f0c57610f0b610e00565b5b6000610f1a85828601610e53565b9250506020610f2b85828601610ee0565b9150509250929050565b610f3e81610e95565b82525050565b600082825260208201905092915050565b6000610f6082610d44565b610f6a8185610f44565b9350610f7a818560208601610d60565b610f8381610d8a565b840191505092915050565b600060e083016000830151610fa66000860182610f35565b5060208301518482036020860152610fbe8282610f55565b91505060408301518482036040860152610fd88282610f55565b91505060608301518482036060860152610ff28282610f55565b91505060808301516110076080860182610f35565b5060a083015161101a60a0860182610f35565b5060c083015161102d60c0860182610f35565b508091505092915050565b600060408201905061104d6000830185610e9f565b818103602083015261105f8184610f8e565b90509392505050565b61107181610e2a565b82525050565b600060208201905061108c6000830184611068565b92915050565b6000602082840312156110a8576110a7610e00565b5b60006110b684828501610ee0565b91505092915050565b600060e0820190506110d4600083018a610e9f565b81810360208301526110e68189610d9b565b905081810360408301526110fa8188610d9b565b9050818103606083015261110e8187610d9b565b905061111d6080830186610e9f565b61112a60a0830185610e9f565b61113760c0830184610e9f565b98975050505050505050565b600080fd5b600080fd5b7f4e487b7100000000000000000000000000000000000000000000000000000000600052604160045260246000fd5b61118582610d8a565b810181811067ffffffffffffffff821117156111a4576111a361114d565b5b80604052505050565b60006111b7610df6565b90506111c3828261117c565b919050565b600067ffffffffffffffff8211156111e3576111e261114d565b5b6111ec82610d8a565b9050602081019050919050565b82818337600083830152505050565b600061121b611216846111c8565b6111ad565b90508281526020810184848401111561123757611236611148565b5b6112428482856111f9565b509392505050565b600082601f83011261125f5761125e611143565b5b813561126f848260208601611208565b91505092915050565b600080600080600080600060e0888a03121561129757611296610e00565b5b60006112a58a828b01610ee0565b975050602088013567ffffffffffffffff8111156112c6576112c5610e05565b5b6112d28a828b0161124a565b965050604088013567ffffffffffffffff8111156112f3576112f2610e05565b5b6112ff8a828b0161124a565b955050606088013567ffffffffffffffff8111156113205761131f610e05565b5b61132c8a828b0161124a565b945050608061133d8a828b01610ee0565b93505060a061134e8a828b01610ee0565b92505060c061135f8a828b01610ee0565b91505092959891949750929550565b7f4e487b7100000000000000000000000000000000000000000000000000000000600052602260045260246000fd5b600060028204905060018216806113b557607f821691505b6020821081036113c8576113c761136e565b5b50919050565b600081905092915050565b50565b60006113e96000836113ce565b91506113f4826113d9565b600082019050919050565b600061140a826113dc565b9150819050919050565b7f4e487b7100000000000000000000000000000000000000000000000000000000600052601160045260246000fd5b600061144e82610e95565b91507fffffffffffffffffffffffffffffffffffffffffffffffffffffffffffffffff82036114805761147f611414565b5b600182019050919050565b60008190508160005260206000209050919050565b60006020601f8301049050919050565b600082821b905092915050565b6000600883026114ed7fffffffffffffffffffffffffffffffffffffffffffffffffffffffffffffffff826114b0565b6114f786836114b0565b95508019841693508086168417925050509392505050565b6000819050919050565b600061153461152f61152a84610e95565b61150f565b610e95565b9050919050565b6000819050919050565b61154e83611519565b61156261155a8261153b565b8484546114bd565b825550505050565b600090565b61157761156a565b611582818484611545565b505050565b5b818110156115a65761159b60008261156f565b600181019050611588565b5050565b601f8211156115eb576115bc8161148b565b6115c5846114a0565b810160208510156115d4578190505b6115e86115e0856114a0565b830182611587565b50505b505050565b600082821c905092915050565b600061160e600019846008026115f0565b1980831691505092915050565b600061162783836115fd565b9150826002028217905092915050565b61164082610d44565b67ffffffffffffffff8111156116595761165861114d565b5b611663825461139d565b61166e8282856115aa565b600060209050601f8311600181146116a1576000841561168f578287015190505b611699858261161b565b865550611701565b601f1984166116af8661148b565b60005b828110156116d7578489015182556001820191506020850194506020810190506116b2565b868310156116f457848901516116f0601f8916826115fd565b8355505b6001600288020188555050505b505050505050565b600061171482610e95565b915061171f83610e95565b925082820390508181111561173757611736611414565b5b92915050565b60006060820190506117526000830186611068565b61175f6020830185610e9f565b61176c6040830184610e9f565b949350505050565b6000606082019050818103600083015261178e8186610d9b565b905061179d6020830185610e9f565b6117aa6040830184610e9f565b94935050505056fea26469706673582212201904ec0095a7f3e3df4e0dd3062297004f688ee385c36cddeae95122573e70a564736f6c63430008110033",
  "linkReferences": {},
  "deployedLinkReferences": {}
}